{
  "abi": [
    {
      "type": "function",
      "name": "addRecord",
      "inputs": [
        {
          "name": "dataHash",
          "type": "string",
          "internalType": "string"
        },
        {
          "name": "metadata",
          "type": "string",
          "internalType": "string"
        },
        {
          "name": "ipfsHash",
          "type": "string",
          "internalType": "string"
        }
      ],
      "outputs": [],
      "stateMutability": "nonpayable"
    },
    {
      "type": "function",
      "name": "getRecord",
      "inputs": [
        {
          "name": "recordId",
          "type": "uint256",
          "internalType": "uint256"
        }
      ],
      "outputs": [
        {
          "name": "",
          "type": "tuple",
          "internalType": "struct EOValidator.Record",
          "components": [
            {
              "name": "hash",
              "type": "string",
              "internalType": "string"
            },
            {
              "name": "ipfsHash",
              "type": "string",
              "internalType": "string"
            },
            {
              "name": "timestamp",
              "type": "uint256",
              "internalType": "uint256"
            },
            {
              "name": "metadata",
              "type": "string",
              "internalType": "string"
            },
            {
              "name": "owner",
              "type": "address",
              "internalType": "address"
            }
          ]
        }
      ],
      "stateMutability": "view"
    },
    {
      "type": "function",
      "name": "getRecords",
      "inputs": [],
      "outputs": [
        {
          "name": "",
          "type": "tuple[]",
          "internalType": "struct EOValidator.Record[]",
          "components": [
            {
              "name": "hash",
              "type": "string",
              "internalType": "string"
            },
            {
              "name": "ipfsHash",
              "type": "string",
              "internalType": "string"
            },
            {
              "name": "timestamp",
              "type": "uint256",
              "internalType": "uint256"
            },
            {
              "name": "metadata",
              "type": "string",
              "internalType": "string"
            },
            {
              "name": "owner",
              "type": "address",
              "internalType": "address"
            }
          ]
        }
      ],
      "stateMutability": "view"
    },
    {
      "type": "function",
      "name": "verifyRecord",
      "inputs": [
        {
          "name": "recordId",
          "type": "uint256",
          "internalType": "uint256"
        },
        {
          "name": "dataHash",
          "type": "string",
          "internalType": "string"
        }
      ],
      "outputs": [
        {
          "name": "",
          "type": "bool",
          "internalType": "bool"
        }
      ],
      "stateMutability": "view"
    }
  ],
  "bytecode": {
    "object": "0x6080604052348015600e575f5ffd5b50610b7f8061001c5f395ff3fe608060405234801561000f575f5ffd5b506004361061004a575f3560e01c806303e9e6091461004e5780633f723c62146100775780638eff3c291461008c578063b3d13337146100a1575b5f5ffd5b61006161005c3660046106af565b6100c4565b60405161006e9190610764565b60405180910390f35b61008a61008536600461081c565b6102e9565b005b6100946103a4565b60405161006e91906108aa565b6100b46100af36600461090d565b61064e565b604051901515815260200161006e565b6100fd6040518060a0016040528060608152602001606081526020015f8152602001606081526020015f6001600160a01b031681525090565b5f8281526020819052604090819020815160a0810190925280548290829061012490610951565b80601f016020809104026020016040519081016040528092919081815260200182805461015090610951565b801561019b5780601f106101725761010080835404028352916020019161019b565b820191905f5260205f20905b81548152906001019060200180831161017e57829003601f168201915b505050505081526020016001820180546101b490610951565b80601f01602080910402602001604051908101604052809291908181526020018280546101e090610951565b801561022b5780601f106102025761010080835404028352916020019161022b565b820191905f5260205f20905b81548152906001019060200180831161020e57829003601f168201915b505050505081526020016002820154815260200160038201805461024e90610951565b80601f016020809104026020016040519081016040528092919081815260200182805461027a90610951565b80156102c55780601f1061029c576101008083540402835291602001916102c5565b820191905f5260205f20905b8154815290600101906020018083116102a857829003601f168201915b5050509183525050600491909101546001600160a01b031660209091015292915050565b6040805160a08101825284815260208082018490524282840152606082018590523360808301526001545f90815290819052919091208151819061032d90826109cf565b506020820151600182019061034290826109cf565b50604082015160028201556060820151600382019061036190826109cf565b5060809190910151600490910180546001600160a01b0319166001600160a01b0390921691909117905560018054905f61039a83610a8a565b9190505550505050565b60605f60015467ffffffffffffffff8111156103c2576103c261077d565b60405190808252806020026020018201604052801561042c57816020015b6104196040518060a0016040528060608152602001606081526020015f8152602001606081526020015f6001600160a01b031681525090565b8152602001906001900390816103e05790505b5090505f5b600154811015610648575f8181526020819052604090819020815160a0810190925280548290829061046290610951565b80601f016020809104026020016040519081016040528092919081815260200182805461048e90610951565b80156104d95780601f106104b0576101008083540402835291602001916104d9565b820191905f5260205f20905b8154815290600101906020018083116104bc57829003601f168201915b505050505081526020016001820180546104f290610951565b80601f016020809104026020016040519081016040528092919081815260200182805461051e90610951565b80156105695780601f1061054057610100808354040283529160200191610569565b820191905f5260205f20905b81548152906001019060200180831161054c57829003601f168201915b505050505081526020016002820154815260200160038201805461058c90610951565b80601f01602080910402602001604051908101604052809291908181526020018280546105b890610951565b80156106035780601f106105da57610100808354040283529160200191610603565b820191905f5260205f20905b8154815290600101906020018083116105e657829003601f168201915b5050509183525050600491909101546001600160a01b0316602090910152825183908390811061063557610635610aae565b6020908102919091010152600101610431565b50919050565b5f816040516020016106609190610ac2565b60408051601f1981840301815282825280516020918201205f878152808352929092209192610690929101610ad8565b6040516020818303038152906040528051906020012014905092915050565b5f602082840312156106bf575f5ffd5b5035919050565b5f81518084528060208401602086015e5f602082860101526020601f19601f83011685010191505092915050565b5f815160a0845261070860a08501826106c6565b90506020830151848203602086015261072182826106c6565b915050604083015160408501526060830151848203606086015261074582826106c6565b6080948501516001600160a01b03169590940194909452509092915050565b602081525f61077660208301846106f4565b9392505050565b634e487b7160e01b5f52604160045260245ffd5b5f82601f8301126107a0575f5ffd5b813567ffffffffffffffff8111156107ba576107ba61077d565b604051601f8201601f19908116603f0116810167ffffffffffffffff811182821017156107e9576107e961077d565b604052818152838201602001851015610800575f5ffd5b816020850160208301375f918101602001919091529392505050565b5f5f5f6060848603121561082e575f5ffd5b833567ffffffffffffffff811115610844575f5ffd5b61085086828701610791565b935050602084013567ffffffffffffffff81111561086c575f5ffd5b61087886828701610791565b925050604084013567ffffffffffffffff811115610894575f5ffd5b6108a086828701610791565b9150509250925092565b5f602082016020835280845180835260408501915060408160051b8601019250602086015f5b8281101561090157603f198786030184526108ec8583516106f4565b945060209384019391909101906001016108d0565b50929695505050505050565b5f5f6040838503121561091e575f5ffd5b82359150602083013567ffffffffffffffff81111561093b575f5ffd5b61094785828601610791565b9150509250929050565b600181811c9082168061096557607f821691505b60208210810361064857634e487b7160e01b5f52602260045260245ffd5b601f8211156109ca57805f5260205f20601f840160051c810160208510156109a85750805b601f840160051c820191505b818110156109c7575f81556001016109b4565b50505b505050565b815167ffffffffffffffff8111156109e9576109e961077d565b6109fd816109f78454610951565b84610983565b6020601f821160018114610a2f575f8315610a185750848201515b5f19600385901b1c1916600184901b1784556109c7565b5f84815260208120601f198516915b82811015610a5e5787850151825560209485019460019092019101610a3e565b5084821015610a7b57868401515f19600387901b60f8161c191681555b50505050600190811b01905550565b5f60018201610aa757634e487b7160e01b5f52601160045260245ffd5b5060010190565b634e487b7160e01b5f52603260045260245ffd5b5f82518060208501845e5f920191825250919050565b5f5f8354610ae581610951565b600182168015610afc5760018114610b1157610b3e565b60ff1983168652811515820286019350610b3e565b865f5260205f205f5b83811015610b3657815488820152600190910190602001610b1a565b505081860193505b50919594505050505056fea26469706673582212206d79d5fde1f07b684a6f09723636466f2d33ce546273f6760d892926a200f7b064736f6c634300081c0033",
    "linkReferences": {}
  },
  "methodIdentifiers": {
    "addRecord(string,string,string)": "3f723c62",
    "getRecord(uint256)": "03e9e609",
    "getRecords()": "8eff3c29",
    "verifyRecord(uint256,string)": "b3d13337"
  },
  "id": 23
}